:100000000C945D000C9485000C9485000C94850084
:100010000C9485000C9485000C9485000C9485004C
:100020000C9485000C9485000C9485000C9485003C
:100030000C9485000C9485000C9485000C9485002C
:100040000C9483040C9485000C9451040C942B04A0
:100050000C9485000C9485000C9485000C9485000C
:100060000C9485000C9485000000000024002700FB
:100070002A0000000000250028002B0004040404CE
:100080000404040402020202020203030303030342
:10009000010204081020408001020408102001021F
:1000A00004081020000000080002010000030407FB
:1000B0000000000000000000CD0411241FBECFEF9F
:1000C000D8E0DEBFCDBF11E0A0E0B1E0E2E4FFE0A8
:1000D00002C005900D92A235B107D9F722E0A2E542
:1000E000B1E001C01D92A031B207E1F710E0CDE50B
:1000F000D0E004C02197FE010E949907CC35D107BA
:10010000C9F70E9417050C949F070C940000AF924A
:10011000BF92CF92DF92EF92FF920F931F93CF93F4
:10012000DF936C017B018B01040F151FEB015E0156
:10013000AE18BF08C017D10759F06991D601ED91EB
:10014000FC910190F081E02DC6010995892B79F78A
:10015000C501DF91CF911F910F91FF90EF90DF903C
:10016000CF90BF90AF900895FC01538D448D252F03
:1001700030E0842F90E0821B930B541710F0CF9641
:10018000089501970895FC01918D828D981761F073
:10019000A28DAE0FBF2FB11D5D968C91928D9F5F8A
:1001A0009F73928F90E008958FEF9FEF0895FC0169
:1001B000918D828D981731F0828DE80FF11D858D1C
:1001C00090E008958FEF9FEF0895FC01918D228DAF
:1001D000892F90E0805C9F4F821B91098F73992734
:1001E00008958BE591E00E94E50021E0892B09F458
:1001F00020E0822F089580E090E0892B29F00E9472
:10020000F10081110C9400000895FC01A48DA80F49
:10021000B92FB11DA35ABF4F2C91848D90E0019648
:100220008F739927848FA689B7892C93A089B18968
:100230008C91837080648C93938D848D981306C009
:100240000288F389E02D80818F7D80830895EF926D
:10025000FF920F931F93CF93DF93EC0181E0888F80
:100260009B8D8C8D98131AC0E889F989808185FF50
:1002700015C09FB7F894EE89FF896083E889F989F2
:1002800080818370806480839FBF81E090E0DF91F4
:10029000CF911F910F91FF90EF900895F62E0B8D47
:1002A00010E00F5F1F4F0F731127E02E8C8D8E1102
:1002B0000CC00FB607FCFACFE889F989808185FF69
:1002C000F5CFCE010E940501F1CFEB8DEC0FFD2F94
:1002D000F11DE35AFF4FF0829FB7F8940B8FEA8924
:1002E000FB8980818062CFCFCF93DF93EC01888D33
:1002F0008823B9F0AA89BB89E889F9898C9185FDA1
:1003000003C0808186FD0DC00FB607FCF7CF8C912E
:1003100085FFF2CF808185FFEDCFCE010E940501E0
:10032000E9CFDF91CF91089590E0FC01EC55FF4FAC
:100330002491FC01E057FF4F3491FC01E458FF4F3A
:10034000E491EE23C9F0222339F0233001F1A8F41F
:10035000213019F1223029F1F0E0EE0FFF1FEE58A5
:10036000FF4FA591B4918FB7F894EC91611126C01D
:1003700030953E233C938FBF08952730A9F0283055
:10038000C9F0243049F7809180008F7D03C08091AF
:1003900080008F7780938000DFCF84B58F7784BD16
:1003A000DBCF84B58F7DFBCF8091B0008F778093BA
:1003B000B000D2CF8091B0008F7DF9CF3E2BDACF45
:1003C000CF93DF9390E0FC01E057FF4F24918458D6
:1003D0009F4FFC0184918823D1F090E0880F991FF2
:1003E000FC01E859FF4FA591B491FC01EE58FF4F75
:1003F000C591D49161110EC09FB7F8948C91E22FF2
:10040000E0958E238C932881E223E8839FBFDF91C0
:10041000CF9108958FB7F894EC91E22BEC938FBFB6
:10042000F6CF8E3008F08E508770806480937C0009
:1004300080917A00806480937A0080917A0086FDB2
:10044000FCCF809178009091790008953FB7F8949F
:100450008091570190915801A0915901B0915A0192
:1004600026B5A89B05C02F3F19F00196A11DB11D0F
:100470003FBFBA2FA92F982F8827BC01CD01620F4B
:10048000711D811D911D42E0660F771F881F991F06
:100490004A95D1F70895089590E080E00895CF93AC
:1004A000DF93EC0160E08E810E94940161E08E8117
:1004B0000E94940160E08E810E9494018BE891E09B
:1004C0000197F1F7DF91CF910895CF92DF92EF92EC
:1004D000FF920F931F93CF93DF936C017C0187E012
:1004E000E80EF11CD0E0C0E0062F10E0B8010C2EA1
:1004F00002C0759567950A94E2F76170F7018191E2
:100500007F010E9494012196C430D10579F7C6017C
:10051000DF91CF911F910F91FF90EF90DF90CF90DF
:100520000C944F02CF92DF92EF92FF920F931F93A2
:10053000CF93DF93EC01F62E642F8C810E949401FF
:100540008D818F3F19F060E00E9494010F2D10E023
:100550008F8584FF25C06E0187E0C80ED11CF12C69
:10056000E12CB8010E2C02C0759567950A94E2F74C
:100570006170F60181916F010E949401FFEFEF1A03
:10058000FF0A88E0E816F10461F7CE01DF91CF9110
:100590001F910F91FF90EF90DF90CF900C944F023E
:1005A000B80184E0759567958A95E1F7CE010E94C0
:1005B00065026F2DCE01DF91CF911F910F91FF90BA
:1005C000EF90DF90CF900C94650240E0682F88EFA9
:1005D00091E00C949202CF93DF93823029F49091B2
:1005E000070298609093070280930B0210920C020E
:1005F00080E480930D0280E180930E0280E5809379
:100600000F0261E08091FC010E94E0018091FD01F8
:100610008F3F19F061E00E94E00161E08091FE01EE
:100620000E94E001C8EFD1E09E01285F3140809137
:10063000070284FD0BC084E090E02196281739075B
:1006400044F461E08E810E94E001EECF88E090E00A
:10065000F4CF8BE39DE00197F1F760E08091FC011E
:100660000E94940160E08091FE010E9494018091BB
:10067000FD018F3F19F060E00E9494018091070214
:1006800084FD39C063E088EF91E00E946502CBE40D
:10069000D6E4CE010197F1F763E088EF91E00E9484
:1006A00065022197F1F763E088EF91E00E9465020F
:1006B00083E592E00197F1F762E088EF91E00E9414
:1006C00065028091070280620E94E50284E08093C7
:1006D00008028CE00E94E50281E00E94E5028BE3C3
:1006E0009FE10197F1F782E08093090286E0DF91B4
:1006F000CF910C94E50280620E94E5028BE496E4BF
:100700000197F1F78091070280620E94E50283E57C
:1007100092E00197F1F78091070280620E94E50262
:10072000D0CF41E00E94920281E090E00895FB0169
:1007300001900020E9F73197AF01461B570BDC0110
:10074000ED91FC910280F381E02D09944F925F922C
:100750006F927F92AF92BF92CF92DF92EF92FF9211
:100760000F931F93CF93DF93CDB7DEB7A1970FB64B
:10077000F894DEBF0FBECDBF5C016A017B01F7FEBE
:1007800047C0DC01ED91FC910190F081E02D6DE21C
:1007900009958C0122273327A9012C193D094E09FF
:1007A0005F0919A2FE01B1967F019AE0492E512CF2
:1007B000612C712CCA01B901A30192010E94770733
:1007C000605DD7016E937D0121153105410551050D
:1007D00089F790E080E0109721F0BD01C5010E94EB
:1007E0009703800F911FA1960FB6F894DEBF0FBE3E
:1007F000CDBFDF91CF911F910F91FF90EF90DF90D0
:10080000CF90BF90AF907F906F905F904F90089582
:10081000AB01960119A28E010F5D1F4F8AE0C82E11
:10082000D12CE12CF12CCA01B901A70196010E943B
:100830007707605DF80162938F012115310541054D
:10084000510589F790E080E0309769F2BF01C5015A
:100850000E949703C8CF1F920F920FB60F921124D8
:100860002F933F934F935F936F937F938F939F93B8
:10087000AF93BF93EF93FF938BE591E00E94050147
:10088000FF91EF91BF91AF919F918F917F916F9168
:100890005F914F913F912F910F900FBE0F901F903E
:1008A00018951F920F920FB60F9211242F938F93CA
:1008B0009F93EF93FF93E0916B01F0916C01808126
:1008C000E0917101F091720182FD1BC090818091D5
:1008D00074018F5F8F7320917501821741F0E09151
:1008E0007401F0E0E55AFE4F958F80937401FF91FB
:1008F000EF919F918F912F910F900FBE0F901F90AE
:1009000018958081F4CF1F920F920FB60F92112489
:100910002F933F938F939F93AF93BF9380915301F6
:1009200090915401A0915501B0915601309152011E
:1009300023E0230F2D3758F50196A11DB11D2093FB
:1009400052018093530190935401A0935501B093A9
:1009500056018091570190915801A0915901B09191
:100960005A010196A11DB11D809357019093580122
:10097000A0935901B0935A01BF91AF919F918F916C
:100980003F912F910F900FBE0F901F90189526E862
:10099000230F0296A11DB11DD2CFEBE5F1E013822A
:1009A000128288EE93E0A0E0B0E084839583A68372
:1009B000B78384E091E09183808385EC90E0958714
:1009C000848784EC90E09787868780EC90E0918B19
:1009D000808B81EC90E0938B828B82EC90E0958B06
:1009E000848B86EC90E0978B868B118E128E138E03
:1009F000148EE8EFF1E01382128286E191E0918398
:100A000080838CE084838FEF85838BE0868385E011
:100A1000878384E0808783E0818782E082871386F2
:100A2000148615861686178681E00C94EB0278945E
:100A300084B5826084BD84B5816084BD85B58260E3
:100A400085BD85B5816085BD80916E008160809394
:100A50006E001092810080918100826080938100FD
:100A6000809181008160809381008091800081600D
:100A7000809380008091B10084608093B100809168
:100A8000B00081608093B00080917A008460809390
:100A90007A0080917A00826080937A0080917A0057
:100AA000816080937A0080917A00806880937A00D8
:100AB0001092C10082E00E94EB02E0916B01F09184
:100AC0006C0182E08083E0916701F09168011082FF
:100AD000E0916901F0916A018FEC808310927301BB
:100AE000E0916F01F091700186E08083E0916D01EB
:100AF000F0916E01808180618083E0916D01F091C1
:100B00006E01808188608083E0916D01F0916E01BB
:100B1000808180688083E0916D01F0916E01808119
:100B20008F7D808360E08FE00E94E00160E08EE0D6
:100B30000E94E00160E080E10E94E001C0E0D0E0BE
:100B4000E1E080910B028111E0E0E195F0E0E850F6
:100B5000FE4F848980680E94E5028FE00E941102A6
:100B60007C016EE171E088EF91E00E949703A7019C
:100B7000FF0C660B770B88EF91E00E94A6038EE0D6
:100B80000E9411027C0163E271E088EF91E00E9413
:100B90009703A701FF0C660B770B88EF91E00E948B
:100BA000A60380E10E9411027C016AE271E08BE5FC
:100BB00091E00E949703B701FF0C880B990B0E94EC
:100BC0007E0625E33EE54AEF5EE30E94E2060E94D0
:100BD0004606615171406B01770FEE08FF08B701BF
:100BE000A6018BE591E00E94A60362E471E08BE52B
:100BF00091E00E949703E0910B02E23008F044C0BC
:100C0000E150F0E0E850FE4F848980680E94E502E0
:100C100065E471E088EF91E00E949703B701A601B7
:100C200088EF91E00E94A6030E9426024B015C011E
:100C300088EEC82E83E0D82EE12CF12C0E942602EB
:100C4000681979098A099B09683E734081059105F5
:100C5000A8F321E0C21AD108E108F10888EE880E55
:100C600083E0981EA11CB11CC114D104E104F1045D
:100C700029F7209709F464CF0E94F100882309F432
:100C80005FCF0E9400005CCFE1E0BBCF0E944D0629
:100C90006894B1110C94DC0608950E94C10688F096
:100CA0009F5798F0B92F9927B751B0F0E1F0660F30
:100CB000771F881F991F1AF0BA95C9F714C0B13071
:100CC00091F00E94DB06B1E008950C94DB06672FDB
:100CD000782F8827B85F39F0B93FCCF386957795A0
:100CE0006795B395D9F73EF4909580957095619589
:100CF0007F4F8F4F9F4F0895E89409C097FB3EF4B4
:100D000090958095709561957F4F8F4F9F4F992358
:100D1000A9F0F92F96E9BB279395F69587957795D6
:100D20006795B795F111F8CFFAF4BB0F11F460FF96
:100D30001BC06F5F7F4F8F4F9F4F16C0882311F0EE
:100D400096E911C0772321F09EE8872F762F05C002
:100D5000662371F096E8862F70E060E02AF09A959D
:100D6000660F771F881FDAF7880F9695879597F992
:100D7000089557FD9058440F551F59F05F3F71F08B
:100D80004795880F97FB991F61F09F3F79F08795F2
:100D90000895121613061406551FF2CF4695F1DF7B
:100DA00008C0161617061806991FF1CF869571050B
:100DB000610508940895E894BB2766277727CB013F
:100DC00097F908950E94F5060C9466070E9458074B
:100DD00038F00E945F0720F0952311F00C944F0724
:100DE0000C94550711240C94DC060E94B90670F38C
:100DF000959FC1F3950F50E0551F629FF001729FC0
:100E0000BB27F00DB11D639FAA27F00DB11DAA1FCE
:100E1000649F6627B00DA11D661F829F2227B00D1B
:100E2000A11D621F739FB00DA11D621F839FA00DA6
:100E3000611D221F749F3327A00D611D231F849FF6
:100E4000600D211D822F762F6A2F11249F5750404D
:100E50009AF0F1F088234AF0EE0FFF1FBB1F661FC8
:100E6000771F881F91505040A9F79E3F510580F091
:100E70000C944F070C94DC065F3FE4F3983ED4F3E8
:100E8000869577956795B795F795E7959F5FC1F735
:100E9000FE2B880F911D9695879597F9089597F9E0
:100EA0009F6780E870E060E008959FEF80EC089510
:100EB00000240A9416161706180609060895002439
:100EC0000A9412161306140605060895092E0394B3
:100ED000000C11F4882352F0BB0F40F4BF2B11F427
:100EE00060FF04C06F5F7F4F8F4F9F4F0895A1E257
:100EF0001A2EAA1BBB1BFD010DC0AA1FBB1FEE1F94
:100F0000FF1FA217B307E407F50720F0A21BB30BDE
:100F1000E40BF50B661F771F881F991F1A9469F75A
:100F200060957095809590959B01AC01BD01CF01B6
:100F30000895EE0FFF1F0590F491E02D0994F894A9
:020F4000FFCFE1
:100F42000000000027018700B4007401E500C3001F
:100F5200D70000000000910387004C024B024C4472
:100F6200523A004D6F6973743A0054656D70726540
:100F72007475726520696E2043656C736975733A86
:100F820020000D0A0054656D70657261747572659A
:020F92003A0023
:00000001FF
